{
  "contractName": "TCRToken",
  "abi": [
    {
      "constant": true,
      "inputs": [],
      "name": "name",
      "outputs": [
        {
          "name": "",
          "type": "string"
        }
      ],
      "payable": false,
      "stateMutability": "view",
      "type": "function"
    },
    {
      "constant": false,
      "inputs": [
        {
          "name": "_spender",
          "type": "address"
        },
        {
          "name": "_value",
          "type": "uint256"
        }
      ],
      "name": "approve",
      "outputs": [
        {
          "name": "",
          "type": "bool"
        }
      ],
      "payable": false,
      "stateMutability": "nonpayable",
      "type": "function"
    },
    {
      "constant": true,
      "inputs": [],
      "name": "totalSupply",
      "outputs": [
        {
          "name": "",
          "type": "uint256"
        }
      ],
      "payable": false,
      "stateMutability": "view",
      "type": "function"
    },
    {
      "constant": false,
      "inputs": [
        {
          "name": "_crowdSaleAddr",
          "type": "address"
        },
        {
          "name": "_amountForSale",
          "type": "uint256"
        }
      ],
      "name": "setCrowdsale",
      "outputs": [],
      "payable": false,
      "stateMutability": "nonpayable",
      "type": "function"
    },
    {
      "constant": false,
      "inputs": [
        {
          "name": "_from",
          "type": "address"
        },
        {
          "name": "_to",
          "type": "address"
        },
        {
          "name": "_value",
          "type": "uint256"
        }
      ],
      "name": "transferFrom",
      "outputs": [
        {
          "name": "",
          "type": "bool"
        }
      ],
      "payable": false,
      "stateMutability": "nonpayable",
      "type": "function"
    },
    {
      "constant": true,
      "inputs": [],
      "name": "INITIAL_SUPPLY",
      "outputs": [
        {
          "name": "",
          "type": "uint256"
        }
      ],
      "payable": false,
      "stateMutability": "view",
      "type": "function"
    },
    {
      "constant": true,
      "inputs": [],
      "name": "decimals",
      "outputs": [
        {
          "name": "",
          "type": "uint8"
        }
      ],
      "payable": false,
      "stateMutability": "view",
      "type": "function"
    },
    {
      "constant": false,
      "inputs": [
        {
          "name": "_value",
          "type": "uint256"
        }
      ],
      "name": "burn",
      "outputs": [],
      "payable": false,
      "stateMutability": "nonpayable",
      "type": "function"
    },
    {
      "constant": true,
      "inputs": [],
      "name": "transferEnabled",
      "outputs": [
        {
          "name": "",
          "type": "bool"
        }
      ],
      "payable": false,
      "stateMutability": "view",
      "type": "function"
    },
    {
      "constant": true,
      "inputs": [],
      "name": "CROWDSALE_ALLOWANCE",
      "outputs": [
        {
          "name": "",
          "type": "uint256"
        }
      ],
      "payable": false,
      "stateMutability": "view",
      "type": "function"
    },
    {
      "constant": false,
      "inputs": [
        {
          "name": "_spender",
          "type": "address"
        },
        {
          "name": "_subtractedValue",
          "type": "uint256"
        }
      ],
      "name": "decreaseApproval",
      "outputs": [
        {
          "name": "",
          "type": "bool"
        }
      ],
      "payable": false,
      "stateMutability": "nonpayable",
      "type": "function"
    },
    {
      "constant": true,
      "inputs": [
        {
          "name": "_owner",
          "type": "address"
        }
      ],
      "name": "balanceOf",
      "outputs": [
        {
          "name": "balance",
          "type": "uint256"
        }
      ],
      "payable": false,
      "stateMutability": "view",
      "type": "function"
    },
    {
      "constant": true,
      "inputs": [],
      "name": "adminAddr",
      "outputs": [
        {
          "name": "",
          "type": "address"
        }
      ],
      "payable": false,
      "stateMutability": "view",
      "type": "function"
    },
    {
      "constant": true,
      "inputs": [],
      "name": "owner",
      "outputs": [
        {
          "name": "",
          "type": "address"
        }
      ],
      "payable": false,
      "stateMutability": "view",
      "type": "function"
    },
    {
      "constant": true,
      "inputs": [],
      "name": "crowdSaleAddr",
      "outputs": [
        {
          "name": "",
          "type": "address"
        }
      ],
      "payable": false,
      "stateMutability": "view",
      "type": "function"
    },
    {
      "constant": true,
      "inputs": [],
      "name": "symbol",
      "outputs": [
        {
          "name": "",
          "type": "string"
        }
      ],
      "payable": false,
      "stateMutability": "view",
      "type": "function"
    },
    {
      "constant": false,
      "inputs": [
        {
          "name": "_to",
          "type": "address"
        },
        {
          "name": "_value",
          "type": "uint256"
        }
      ],
      "name": "transfer",
      "outputs": [
        {
          "name": "",
          "type": "bool"
        }
      ],
      "payable": false,
      "stateMutability": "nonpayable",
      "type": "function"
    },
    {
      "constant": true,
      "inputs": [],
      "name": "crowdSaleAllowance",
      "outputs": [
        {
          "name": "",
          "type": "uint256"
        }
      ],
      "payable": false,
      "stateMutability": "view",
      "type": "function"
    },
    {
      "constant": true,
      "inputs": [],
      "name": "adminAllowance",
      "outputs": [
        {
          "name": "",
          "type": "uint256"
        }
      ],
      "payable": false,
      "stateMutability": "view",
      "type": "function"
    },
    {
      "constant": false,
      "inputs": [
        {
          "name": "_spender",
          "type": "address"
        },
        {
          "name": "_addedValue",
          "type": "uint256"
        }
      ],
      "name": "increaseApproval",
      "outputs": [
        {
          "name": "",
          "type": "bool"
        }
      ],
      "payable": false,
      "stateMutability": "nonpayable",
      "type": "function"
    },
    {
      "constant": true,
      "inputs": [
        {
          "name": "_owner",
          "type": "address"
        },
        {
          "name": "_spender",
          "type": "address"
        }
      ],
      "name": "allowance",
      "outputs": [
        {
          "name": "",
          "type": "uint256"
        }
      ],
      "payable": false,
      "stateMutability": "view",
      "type": "function"
    },
    {
      "constant": false,
      "inputs": [],
      "name": "enableTransfer",
      "outputs": [],
      "payable": false,
      "stateMutability": "nonpayable",
      "type": "function"
    },
    {
      "constant": false,
      "inputs": [
        {
          "name": "newOwner",
          "type": "address"
        }
      ],
      "name": "transferOwnership",
      "outputs": [],
      "payable": false,
      "stateMutability": "nonpayable",
      "type": "function"
    },
    {
      "constant": true,
      "inputs": [],
      "name": "ADMIN_ALLOWANCE",
      "outputs": [
        {
          "name": "",
          "type": "uint256"
        }
      ],
      "payable": false,
      "stateMutability": "view",
      "type": "function"
    },
    {
      "inputs": [
        {
          "name": "_admin",
          "type": "address"
        }
      ],
      "payable": false,
      "stateMutability": "nonpayable",
      "type": "constructor"
    },
    {
      "anonymous": false,
      "inputs": [
        {
          "indexed": true,
          "name": "previousOwner",
          "type": "address"
        },
        {
          "indexed": true,
          "name": "newOwner",
          "type": "address"
        }
      ],
      "name": "OwnershipTransferred",
      "type": "event"
    },
    {
      "anonymous": false,
      "inputs": [
        {
          "indexed": true,
          "name": "burner",
          "type": "address"
        },
        {
          "indexed": false,
          "name": "value",
          "type": "uint256"
        }
      ],
      "name": "Burn",
      "type": "event"
    },
    {
      "anonymous": false,
      "inputs": [
        {
          "indexed": true,
          "name": "owner",
          "type": "address"
        },
        {
          "indexed": true,
          "name": "spender",
          "type": "address"
        },
        {
          "indexed": false,
          "name": "value",
          "type": "uint256"
        }
      ],
      "name": "Approval",
      "type": "event"
    },
    {
      "anonymous": false,
      "inputs": [
        {
          "indexed": true,
          "name": "from",
          "type": "address"
        },
        {
          "indexed": true,
          "name": "to",
          "type": "address"
        },
        {
          "indexed": false,
          "name": "value",
          "type": "uint256"
        }
      ],
      "name": "Transfer",
      "type": "event"
    }
  ],
  "bytecode": "0x60606040526007805460a060020a60ff0219169055341561001f57600080fd5b604051602080620011e68339810160405280805160038054600160a060020a03338116600160a060020a0319909216821790925591935083161415905061006557600080fd5b6a17293b0a9e69fd9c00000060008190556a1210ccc5b900c0b20000006004556a05186e44e5693cea00000060058190556100ad9190640100000000610d9b61019382021704565b600160a060020a0333166000818152600160205260408120929092556005548254919291600080516020620011c6833981519152916100f99190640100000000610d9b61019382021704565b60405190815260200160405180910390a3600554600160a060020a03821660008181526001602052604080822084905591929091600080516020620011c683398151915291905190815260200160405180910390a360078054600160a060020a031916600160a060020a03838116919091179182905560055461018c92909116906401000000006101a5810261049f1704565b5050610211565b60008282111561019f57fe5b50900390565b600160a060020a03338116600081815260026020908152604080832094871680845294909152808220859055909291907f8c5be1e5ebec7d5bd14f71427d1e84f3dd0314c0f7b2291e5b200ac8c7c3b9259085905190815260200160405180910390a350600192915050565b610fa580620002216000396000f30060606040526004361061013d5763ffffffff7c010000000000000000000000000000000000000000000000000000000060003504166306fdde038114610142578063095ea7b3146101cc57806318160ddd1461020257806322ed63021461022757806323b872dd1461024b5780632ff2e9dc14610273578063313ce5671461028657806342966c68146102af5780634cd412d5146102c55780635c9d0fb1146102d857806366188463146102eb57806370a082311461030d578063818305931461032c5780638da5cb5b1461035b5780638eeb33ff1461036e57806395d89b4114610381578063a9059cbb14610394578063d14ac7c4146103b6578063d56de6ed146103c9578063d73dd623146103dc578063dd62ed3e146103fe578063f1b50c1d14610423578063f2fde38b14610436578063fc53f95814610455575b600080fd5b341561014d57600080fd5b610155610468565b60405160208082528190810183818151815260200191508051906020019080838360005b83811015610191578082015183820152602001610179565b50505050905090810190601f1680156101be5780820380516001836020036101000a031916815260200191505b509250505060405180910390f35b34156101d757600080fd5b6101ee600160a060020a036004351660243561049f565b604051901515815260200160405180910390f35b341561020d57600080fd5b61021561050b565b60405190815260200160405180910390f35b341561023257600080fd5b610249600160a060020a0360043516602435610511565b005b341561025657600080fd5b6101ee600160a060020a03600435811690602435166044356105bd565b341561027e57600080fd5b61021561070b565b341561029157600080fd5b61029961071a565b60405160ff909116815260200160405180910390f35b34156102ba57600080fd5b61024960043561071f565b34156102d057600080fd5b6101ee61079b565b34156102e357600080fd5b6102156107ab565b34156102f657600080fd5b6101ee600160a060020a03600435166024356107ba565b341561031857600080fd5b610215600160a060020a03600435166108b4565b341561033757600080fd5b61033f6108cf565b604051600160a060020a03909116815260200160405180910390f35b341561036657600080fd5b61033f6108de565b341561037957600080fd5b61033f6108ed565b341561038c57600080fd5b6101556108fc565b341561039f57600080fd5b6101ee600160a060020a0360043516602435610933565b34156103c157600080fd5b610215610a19565b34156103d457600080fd5b610215610a1f565b34156103e757600080fd5b6101ee600160a060020a0360043516602435610a25565b341561040957600080fd5b610215600160a060020a0360043581169060243516610ac9565b341561042e57600080fd5b610249610af4565b341561044157600080fd5b610249600160a060020a0360043516610b6f565b341561046057600080fd5b610215610c0a565b60408051908101604052601b81527f5472616e73626f756e646172792043726564697420526174696e670000000000602082015281565b600160a060020a03338116600081815260026020908152604080832094871680845294909152808220859055909291907f8c5be1e5ebec7d5bd14f71427d1e84f3dd0314c0f7b2291e5b200ac8c7c3b9259085905190815260200160405180910390a350600192915050565b60005481565b60035460009033600160a060020a0390811691161461052f57600080fd5b60075460a060020a900460ff161561054657600080fd5b60045482111561055557600080fd5b81156105615781610565565b6004545b60065490915061057f90600160a060020a0316600061049f565b5061058a838261049f565b50506006805473ffffffffffffffffffffffffffffffffffffffff1916600160a060020a03939093169290921790915550565b600754600090819060a060020a900460ff16151561060b5760075433600160a060020a0390811691161480610600575060065433600160a060020a039081169116145b151561060b57600080fd5b83600160a060020a038116151561062157600080fd5b30600160a060020a031681600160a060020a03161415151561064257600080fd5b600354600160a060020a038281169116141561065d57600080fd5b600754600160a060020a038281169116141561067857600080fd5b600654600160a060020a038281169116141561069357600080fd5b61069e868686610c19565b915081156107025760065433600160a060020a03908116911614156106d4576004546106d0908563ffffffff610d9b16565b6004555b60075433600160a060020a0390811691161415610702576005546106fe908563ffffffff610d9b16565b6005555b50949350505050565b6a17293b0a9e69fd9c00000081565b601281565b60075460a060020a900460ff1680610745575060035433600160a060020a039081169116145b151561075057600080fd5b61075981610dad565b600033600160a060020a03167fddf252ad1be2c89b69c2b068fc378daa952ba7f163c4a11628f55a4df523b3ef8360405190815260200160405180910390a350565b60075460a060020a900460ff1681565b6a1210ccc5b900c0b200000081565b600160a060020a0333811660009081526002602090815260408083209386168352929052908120548083111561081757600160a060020a03338116600090815260026020908152604080832093881683529290529081205561084e565b610827818463ffffffff610d9b16565b600160a060020a033381166000908152600260209081526040808320938916835292905220555b600160a060020a0333811660008181526002602090815260408083209489168084529490915290819020547f8c5be1e5ebec7d5bd14f71427d1e84f3dd0314c0f7b2291e5b200ac8c7c3b925915190815260200160405180910390a35060019392505050565b600160a060020a031660009081526001602052604090205490565b600754600160a060020a031681565b600354600160a060020a031681565b600654600160a060020a031681565b60408051908101604052600381527f5443520000000000000000000000000000000000000000000000000000000000602082015281565b60075460009060a060020a900460ff16151561097f5760075433600160a060020a0390811691161480610974575060065433600160a060020a039081169116145b151561097f57600080fd5b82600160a060020a038116151561099557600080fd5b30600160a060020a031681600160a060020a0316141515156109b657600080fd5b600354600160a060020a03828116911614156109d157600080fd5b600754600160a060020a03828116911614156109ec57600080fd5b600654600160a060020a0382811691161415610a0757600080fd5b610a118484610e68565b949350505050565b60045481565b60055481565b600160a060020a033381166000908152600260209081526040808320938616835292905290812054610a5d908363ffffffff610f6316565b600160a060020a0333811660008181526002602090815260408083209489168084529490915290819020849055919290917f8c5be1e5ebec7d5bd14f71427d1e84f3dd0314c0f7b2291e5b200ac8c7c3b92591905190815260200160405180910390a350600192915050565b600160a060020a03918216600090815260026020908152604080832093909416825291909152205490565b60035433600160a060020a03908116911614610b0f57600080fd5b6007805474ff0000000000000000000000000000000000000000191660a060020a179055600654610b4a90600160a060020a0316600061049f565b50600754610b6290600160a060020a0316600061049f565b5060006004819055600555565b60035433600160a060020a03908116911614610b8a57600080fd5b600160a060020a0381161515610b9f57600080fd5b600354600160a060020a0380831691167f8be0079c531659141344cd1fd0a4f28419497f9722a3daafe3b4186f6b6457e060405160405180910390a36003805473ffffffffffffffffffffffffffffffffffffffff1916600160a060020a0392909216919091179055565b6a05186e44e5693cea00000081565b6000600160a060020a0383161515610c3057600080fd5b600160a060020a038416600090815260016020526040902054821115610c5557600080fd5b600160a060020a0380851660009081526002602090815260408083203390941683529290522054821115610c8857600080fd5b600160a060020a038416600090815260016020526040902054610cb1908363ffffffff610d9b16565b600160a060020a038086166000908152600160205260408082209390935590851681522054610ce6908363ffffffff610f6316565b600160a060020a03808516600090815260016020908152604080832094909455878316825260028152838220339093168252919091522054610d2e908363ffffffff610d9b16565b600160a060020a03808616600081815260026020908152604080832033861684529091529081902093909355908516917fddf252ad1be2c89b69c2b068fc378daa952ba7f163c4a11628f55a4df523b3ef9085905190815260200160405180910390a35060019392505050565b600082821115610da757fe5b50900390565b600160a060020a033316600090815260016020526040812054821115610dd257600080fd5b5033600160a060020a038116600090815260016020526040902054610df79083610d9b565b600160a060020a03821660009081526001602052604081209190915554610e24908363ffffffff610d9b16565b600055600160a060020a0381167fcc16f5dbb4873280815c1ee09dbd06736cffcc184412cf7a71a0fdb75d397ca58360405190815260200160405180910390a25050565b6000600160a060020a0383161515610e7f57600080fd5b600160a060020a033316600090815260016020526040902054821115610ea457600080fd5b600160a060020a033316600090815260016020526040902054610ecd908363ffffffff610d9b16565b600160a060020a033381166000908152600160205260408082209390935590851681522054610f02908363ffffffff610f6316565b600160a060020a0380851660008181526001602052604090819020939093559133909116907fddf252ad1be2c89b69c2b068fc378daa952ba7f163c4a11628f55a4df523b3ef9085905190815260200160405180910390a350600192915050565b600082820183811015610f7257fe5b93925050505600a165627a7a72305820738703e8fa82174785f8fdd09efb442088ebbb8e81e0bbcecd46ed04f7b815a60029ddf252ad1be2c89b69c2b068fc378daa952ba7f163c4a11628f55a4df523b3ef",
  "source": "// Zignuts Technolab Private Limited (hello@zignuts.com)\n\npragma solidity ^0.4.15;\n\nimport 'zeppelin-solidity/contracts/token/StandardToken.sol';\nimport 'zeppelin-solidity/contracts/token/BurnableToken.sol';\nimport 'zeppelin-solidity/contracts/ownership/Ownable.sol';\nimport 'zeppelin-solidity/contracts/math/SafeMath.sol';\n\n/**\n * The Transboundary Credit Rating token (TCR - TCRToken) has a fixed supply and restricts the ability\n * to transfer tokens until the owner has called the enableTransfer()\n * function.\n *\n * The owner can associate the token with a token sale contract. In that\n * case, the token balance is moved to the token sale contract, which\n * in turn can transfer its tokens to contributors to the sale.\n */\ncontract TCRToken is StandardToken, BurnableToken, Ownable {\n\n    // Constants\n    string  public constant name = \"Transboundary Credit Rating\";\n    string  public constant symbol = \"TCR\";\n    uint8   public constant decimals = 18;\n    uint256 public constant INITIAL_SUPPLY      =  28000000 * (10 ** uint256(decimals));\n    uint256 public constant CROWDSALE_ALLOWANCE =  21840000  * (10 ** uint256(decimals));\n    uint256 public constant ADMIN_ALLOWANCE     =   6160000 * (10 ** uint256(decimals));\n\n    // Properties\n    uint256 public crowdSaleAllowance;      // the number of tokens available for crowdsales\n    uint256 public adminAllowance;          // the number of tokens available for the administrator\n    address public crowdSaleAddr;           // the address of a crowdsale currently selling this token\n    address public adminAddr;               // the address of a crowdsale currently selling this token\n    bool    public transferEnabled = false; // indicates if transferring tokens is enabled or not\n\n    // Modifiers\n    modifier onlyWhenTransferEnabled() {\n        if (!transferEnabled) {\n            require(msg.sender == adminAddr || msg.sender == crowdSaleAddr);\n        }\n        _;\n    }\n\n    /**\n     * The listed addresses are not valid recipients of tokens.\n     *\n     * 0x0           - the zero address is not valid\n     * this          - the contract itself should not receive tokens\n     * owner         - the owner has all the initial tokens, but cannot receive any back\n     * adminAddr     - the admin has an allowance of tokens to transfer, but does not receive any\n     * crowdSaleAddr - the crowdsale has an allowance of tokens to transfer, but does not receive any\n     */\n    modifier validDestination(address _to) {\n        require(_to != address(0x0));\n        require(_to != address(this));\n        require(_to != owner);\n        require(_to != address(adminAddr));\n        require(_to != address(crowdSaleAddr));\n        _;\n    }\n\n    /**\n     * Constructor - instantiates token supply and allocates balanace of\n     * to the owner (msg.sender).\n     */\n    function TCRToken(address _admin) public {\n        // the owner is a custodian of tokens that can\n        // give an allowance of tokens for crowdsales\n        // or to the admin, but cannot itself transfer\n        // tokens; hence, this requirement\n        require(msg.sender != _admin);\n\n        totalSupply = INITIAL_SUPPLY;\n        crowdSaleAllowance = CROWDSALE_ALLOWANCE;\n        adminAllowance = ADMIN_ALLOWANCE;\n\n        // mint all tokens\n        balances[msg.sender] = totalSupply.sub(adminAllowance);\n        Transfer(address(0x0), msg.sender, totalSupply.sub(adminAllowance));\n\n        balances[_admin] = adminAllowance;\n        Transfer(address(0x0), _admin, adminAllowance);\n\n        adminAddr = _admin;\n        approve(adminAddr, adminAllowance);\n    }\n\n    /**\n     * Associates this token with a current crowdsale, giving the crowdsale\n     * an allowance of tokens from the crowdsale supply. This gives the\n     * crowdsale the ability to call transferFrom to transfer tokens to\n     * whomever has purchased them.\n     *\n     * Note that if _amountForSale is 0, then it is assumed that the full\n     * remaining crowdsale supply is made available to the crowdsale.\n     *\n     * @param _crowdSaleAddr The address of a crowdsale contract that will sell this token\n     * @param _amountForSale The supply of tokens provided to the crowdsale\n     */\n    function setCrowdsale(address _crowdSaleAddr, uint256 _amountForSale) external onlyOwner {\n        require(!transferEnabled);\n        require(_amountForSale <= crowdSaleAllowance);\n\n        // if 0, then full available crowdsale supply is assumed\n        uint amount = (_amountForSale == 0) ? crowdSaleAllowance : _amountForSale;\n\n        // Clear allowance of old, and set allowance of new\n        approve(crowdSaleAddr, 0);\n        approve(_crowdSaleAddr, amount);\n\n        crowdSaleAddr = _crowdSaleAddr;\n    }\n\n    /**\n     * Enables the ability of anyone to transfer their tokens. This can\n     * only be called by the token owner. Once enabled, it is not\n     * possible to disable transfers.\n     */\n    function enableTransfer() external onlyOwner {\n        transferEnabled = true;\n        approve(crowdSaleAddr, 0);\n        approve(adminAddr, 0);\n        crowdSaleAllowance = 0;\n        adminAllowance = 0;\n    }\n\n    /**\n     * Overrides ERC20 transfer function with modifier that prevents the\n     * ability to transfer tokens until after transfers have been enabled.\n     */\n    function transfer(address _to, uint256 _value) public onlyWhenTransferEnabled validDestination(_to) returns (bool) {\n        return super.transfer(_to, _value);\n    }\n\n    /**\n     * Overrides ERC20 transferFrom function with modifier that prevents the\n     * ability to transfer tokens until after transfers have been enabled.\n     */\n    function transferFrom(address _from, address _to, uint256 _value) public onlyWhenTransferEnabled validDestination(_to) returns (bool) {\n        bool result = super.transferFrom(_from, _to, _value);\n        if (result) {\n            if (msg.sender == crowdSaleAddr)\n                crowdSaleAllowance = crowdSaleAllowance.sub(_value);\n            if (msg.sender == adminAddr)\n                adminAllowance = adminAllowance.sub(_value);\n        }\n        return result;\n    }\n\n    /**\n     * Overrides the burn function so that it cannot be called until after\n     * transfers have been enabled.\n     *\n     * @param _value    The amount of tokens to burn in mini-QSP\n     */\n    function burn(uint256 _value) public {\n        require(transferEnabled || msg.sender == owner);\n        super.burn(_value);\n        Transfer(msg.sender, address(0x0), _value);\n    }\n}\n",
  "sourcePath": "/home/ztlab07/lc-juan/tcr-token/contracts/TCRToken.sol",
  "compiler": {
    "name": "solc",
    "version": "0.4.18+commit.9cf6e910.Emscripten.clang"
  },
  "schemaVersion": "1.0.1",
  "updatedAt": "2018-01-20T17:36:19.119Z"
}